:040000003BEF00F0E2
:100008005F82FACF01F0FBCF02F00E01BDA90FEF1E
:1000180000F011EF00F01CEF00F0C5A916EF00F09A
:1000280018EF00F01CEF00F0A8EC86F035EF00F0B8
:10003800F2AC21EF00F023EF00F035EF00F0BDAB9C
:1000480028EF00F02AEF00F035EF00F0C5AB2FEFF6
:1000580000F031EF00F035EF00F07BEC85F035EF84
:1000680000F002C0FBFF01C0FAFF5F92110096EF9B
:0200780085F011
:10FEBA0000780A010000000000002E0D0100000079
:10FECA008C0B010000000000000000000000000090
:10FEDA000000000000000000000000000000000018
:10FEEA00000000000000000000000000004C0C01AF
:10FEFA002A0C01000000000000B60B0100000000FF
:10FF0A000000000000EC0C010000000A0D435243FF
:10FF1A00206572726F722120436F6D70757465640B
:10FF2A002043524320646F65736E2774206D617499
:10FF3A00636820776974682073746F7265642043FC
:10FF4A0052432E0A000A0D435243204F4B212043AD
:10FF5A006F6D707574656420435243206D617463DC
:10FF6A0068657320776974682073746F726564209A
:10FF7A004352432E0A000A0D43616C63756C617427
:10FF8A00696E672043524320666F72207468652049
:10FF9A0066697273742074696D652E0A000A0D50C1
:10FFAA006572696F646963616C6C7920636F6D70E7
:10FFBA007574656420435243206973203078253470
:10FFCA00782E000A0D436F6D707574656420435274
:10FFDA00432069732030782534782E0A000A0D539D
:10FFEA00746F726564204352432069732030782508
:05FFFA0034782E000028
:020000040001F9
:10000000000E516E000E506E4E684F6846EC86F042
:10001000F28EF28C440E036E0D0E046E010E056E10
:1000200076EC86F0AA0E046E550E036E92EC86F006
:10003000010E036E000E046E310E056EB0EC85F0FD
:100040004C6E4C50506E516A50504D6E4C6A000EC2
:100050004C14506EFF0E4D14516E000E036E000EC8
:10006000046E310E056EB0EC85F04C6E4C505012A3
:10007000502806E15128D8A440EF80F042EF80F0EC
:1000800080EF80F0800E466EFF0E476EEFEC85F03D
:10009000AFEC83F011C04EF012C04FF0CD0E466EA3
:1000A000FF0E476E4EC048F04FC049F0EFEC85F0B0
:1000B000000E036E000E046E310E056E4EC006F08B
:1000C000ADEC84F05CEC84F00009D8A46AEF80F019
:1000D0006CEF80F062EF80F0010E036E000E046E94
:1000E000310E056E4F50066EADEC84F05CEC84F082
:1000F0000009D8A47EEF80F080EF80F076EF80F0EA
:100100005E50D8B486EF80F088EF80F080EF80F00A
:10011000000E5E6E000E516E000E506E4E684F68FF
:10012000010E036E000E046E310E056EB0EC85F00C
:100130004C6E4C50506E516A50504D6E4C6A000ED1
:100140004C14506EFF0E4D14516E000E036E000ED7
:10015000046E310E056EB0EC85F04C6E4C505012B2
:10016000E70E466EFF0E476E50C048F051C049F092
:10017000EFEC85F0AFEC83F011C04EF012C04FF001
:10018000A70E466EFF0E476E4EC048F04FC049F0B6
:10019000EFEC85F050504E1809E151504F18D8B48B
:1001A000D4EF80F0D6EF80F0DFEF80F0150E466ED2
:1001B000FF0E476EEFEC85F08690DDEF80F04F0E7E
:1001C000466EFF0E476EEFEC85F0868080EF80F084
:1001D0003BEF00F032C0D9FF33C0DAFFDECFF6FFCD
:1001E000DDCFF7FF000EF86E0800F550250AD8A401
:1001F000FCEF80F0FEEF80F090EF81F032C0D9FF8D
:1002000033C0DAFFDE2A000EDD22000E566E000E2D
:10021000556E55C05BF05768586832C009F033C05E
:100220000AF034C00BF035C00CF036EC82F009C097
:1002300055F00AC056F056BE22EF81F020EF81F053
:1002400027EF81F05B80556C561ED8B0562A32C01D
:10025000D9FF33C0DAFFDECF3CF0DDCF3DF03CC04C
:10026000F6FF3DC0F7FF000EF86E0800F550780A63
:10027000D8A43DEF81F03FEF81F087EF81F034C0EB
:10028000D9FF35C0DAFFDFCF36F0020EDE26DFCF32
:1002900037F0000EDD2236C0D9FF37C0DAFFDECFDF
:1002A00038F0DDCF39F0010E3C24366E000E3D20D3
:1002B000376E32C0D9FF33C0DAFF36C0DEFF37C039
:1002C000DDFF6FEF81F030C020F031C021F038C089
:1002D00022F039C023F0A7EC81F0A6EF81F03CC0FA
:1002E000F6FF3DC0F7FF000EF86E0800F550366EC1
:1002F000376A3750000AD8B480EF81F087EF81F079
:100300003650780AD8B463EF81F087EF81F032C0BD
:10031000D9FF33C0DAFFDE2A000EDD22A6EF81F01E
:1003200032C0D9FF33C0DAFFDECFF6FFDDCFF7FFF3
:10033000000EF86E0800F550056E066A30C007F032
:1003400031C008F09DEC82F087EF81F0120058BEBA
:10035000AEEF81F0ACEF81F0B4EF81F0000E2C6EC7
:10036000010E2B6EB8EF81F057C02BF058C02CF067
:1003700055C027F056C028F0000E2E6E1F0E2D6EB1
:10038000000E00018E6F01EF82F02D06D8A02E0620
:1003900022500F0B2F6E090E2F64D1EF81F0D3EF97
:1003A00081F0DBEF81F0570E2F24296E2A6A000EB0
:1003B0002A22E1EF81F0300E2F24296E2A6A000EE6
:1003C0002A2229C02FF06F0E2D24D96E000E2E2068
:1003D000DA6E2FC0DFFF2B06D8A02C062706D8A088
:1003E000280622C024F023C025F0040E266ED890E3
:1003F00025322432262EF7EF81F024C022F025C0CA
:1004000023F02EBE0DEF82F02E5009E1020E2D5C7E
:10041000D8A00DEF82F00FEF82F025EF82F022508E
:100420002310D8A416EF82F018EF82F0C5EF81F008
:100430002CBE25EF82F02C5006E12B04D8B023EF20
:1004400082F025EF82F0C5EF81F020C015F021C0C9
:1004500016F06F0E2D24176E000E2E20186E27C07A
:1004600019F028C01AF05AEC83F01200000E116E39
:10047000000E106E09C0D9FF0AC0DAFFDECFF6FF0A
:10048000DDCFF7FF000EF86E0800F5502A0AD8A459
:100490004CEF82F04EEF82F082EF82F009C0D9FF7C
:1004A0000AC0DAFFDE2A000EDD220BC0D9FF0CC025
:1004B000DAFFDFCF0DF0020EDE26DFCF0EF0000EEA
:1004C000DD220DC0D9FF0EC0DAFFDECF10F0DDCF88
:1004D00011F098EF82F010C003F011C004F0000E8C
:1004E000066E0A0E056E02EC86F00F500324106EA5
:1004F000000E0420116E09C0D9FF0AC0DAFFDE2AFF
:10050000000EDD2209C0D9FF0AC0DAFFDECFF6FFF8
:10051000DDCFF7FF000EF86E0800F550D00F0F6E1C
:10052000090E0F6496EF82F098EF82F06BEF82F085
:1005300010C009F011C00AF0120007500810D8B41A
:10054000A4EF82F0A6EF82F0AFEF82F00750081020
:10055000D8A4ADEF82F0AFEF82F0B4EF82F0055097
:1005600037EC86F001EF83F020EE0AF00750D92631
:100570000850DA22DE50DE10D8B4C1EF82F0C3EFAB
:1005800082F0DEEF82F020EE0AF00750D926085004
:10059000DA2210EE03F00750E1260850E222DE5086
:1005A000E65CE650800A0D6EDE50800A0D58D8B029
:1005B000DCEF82F0DEEF82F001EF83F020EE03F05B
:1005C0000750D9260850DA22DECF09F0DDCF0AF035
:1005D00007C0D9FF08C0DAFFDECF0BF0DDCF0CF08B
:1005E00009500B24D96E0A500C20DA6E05C0DFFFCB
:1005F00020EE03F00750D9260850DA22DE2A000E3A
:10060000DD221200000E826E000E836E000E846EDC
:10061000000E856E010E866E876888688968FE0EFA
:100620008A6E060E8B6E0F010C697F0E146F1C69AB
:100630002169060E296F000E0B6F000E136F000E5E
:100640001B6F000E206F000E286F000E0A6F000E49
:10065000126F000E1A6F000E1F6F000E276F0969D0
:10066000116919691E69070E266F086910691869F2
:100670001D690F0E256F0F0E0E01886F0B0EFA6F9E
:10068000000E0F01076F000E066F000E056F000EC3
:100690000F6F000E0E6F000E0D6F000E176F000E25
:1006A000166F000E156F000E246F000E236F000EE4
:1006B000226F12005BA05FEF83F061EF83F06BEFBE
:1006C00083F017C00EF018C00FF015C010F016C060
:1006D00011F01AEC85F01ABE70EF83F072EF83F020
:1006E00078EF83F019C01EF01AC01FF07CEF83F082
:1006F000000E1F6E000E1E6E000E1D6E000E1C6E94
:100700008EEF83F0000E066E200E056E15C007F00A
:1007100016C008F09DEC82F01C4A1D2A1E501C5C7D
:100720001D50800A1B6E1F50800A1B58D8A09BEFDB
:1007300083F09DEF83F082EF83F05BB0A2EF83F054
:10074000A4EF83F0AEEF83F017C00EF018C00FF0E7
:1007500015C010F016C011F01AEC85F01200000E52
:10076000156E72687168000E036E000E046E000E46
:10077000056EFE0E066E7F0E076E000E086ED3EC41
:1007800084F09BEC86F0010E166E6CEC86F000098E
:10079000D8A4CDEF83F0CFEF83F0DBEF83F061ECF3
:1007A00086F00009D8A4D7EF83F0D9EF83F0DBEF10
:1007B00083F0000E166E1650D8A4E1EF83F0E4EF3C
:1007C00083F0010EE5EF83F0000E156E1550D8A4EE
:1007D000ECEF83F0EEEF83F0C3EF83F0000E0B6ECF
:1007E000000E0A6E000E85EC84F00AC013F00BC0F8
:1007F00014F013C011F014C012F01200000E096EB4
:10080000010E086E78500F0B056E05280BEF84F073
:10081000D89008360936E82E08EF84F0000E076EEF
:10082000000E066E25EF84F003A019EF84F01BEF95
:1008300084F01FEF84F00850061209500712D89078
:1008400009320832D8900432033203500410D8A47D
:100850002CEF84F02EEF84F014EF84F006C003F048
:1008600007C004F0120040C044F041C045F047EF1B
:1008700084F03EC030F03FC031F0440E326E000EC6
:10088000336E42C034F043C035F0EAEC80F044C02F
:10089000F6FF45C0F7FF000EF86E0800F55000099E
:1008A000D8A455EF84F057EF84F039EF84F0000EB0
:1008B0003F6E000E3E6E1200010E036E80BC63EFB1
:1008C00084F065EF84F083EF84F080BA6AEF84F0FF
:1008D0006CEF84F083EF84F080B871EF84F073EFF5
:1008E00084F083EF84F080B278EF84F07AEF84F0C4
:1008F00083EF84F080B07FEF84F081EF84F083EFAA
:1009000084F0000E036E035012000E6E71CF0FF0D4
:10091000106A72500D6E0C6A0F500C100F6E105052
:100920000D10106E0E50D8B498EF84F09AEF84F04A
:10093000A4EF84F00FC003F010C004F0FEEC83F0CD
:1009400003C00FF004C010F00A500F1A0B50101A19
:100950000FC00AF010C00BF01200000EF2BE010E24
:100960000A6E05C07BFF03C007F004C008F005C095
:1009700009F008C007F009C008F0096A07507A6E4C
:1009800003C079FF06C07CFF7F8EF29E0F015DC021
:1009900081FF5C50816F80890AB002D0F29E01D045
:1009A000F28E7F9E120008C049FF06C009F007C002
:1009B0000AF008C00BF00AC009F00BC00AF00B6A7D
:1009C00009500F01486F06C047FF05C046FF03C02E
:1009D00009F004C00AF005C00BF00AC009F00BC012
:1009E0000AF00B6A0950456F03C044FF1200F29AE7
:1009F0000E01C591F280000E036E000E046E000E13
:100A0000056E8BEC86F00E01C593F282000E036E2C
:100A1000000E046E000E056E84EC86F00E01C59586
:100A2000F284000E036E000E046E000E056E7DEC67
:100A300086F01200000E146E000E136E2BEF85F080
:100A400012C005F0066A10C007F011C008F09DEC56
:100A500082F0134A142A13500E24D96E14500F201A
:100A6000DA6EDF50126E1250D8A439EF85F03BEFEA
:100A700085F020EF85F01200480E0E019A6F900E5F
:100A8000986F260E996F190E966F000E976F000ED5
:100A9000036E000E046E000E056E26EC86F0000E4E
:100AA000036E000E046E000E056E15EC86F0000E4F
:100AB0005A6E000E596E12007868100E766E210E76
:100AC000756E72687168000E706E000E6F6E0F01A9
:100AD00048694769000E456F000E446F000E4B6F6A
:100AE0000E01CC9DC49DCC9FC49F800E776E800E5E
:100AF0000F014A6F12000E01C59B0001665167117C
:100B00006811D8B486EF85F088EF85F095EF85F011
:100B100002D895EF85F00500FA6E6651FD6E6751BB
:100B2000FE6E6851FF6EFA5012001200520EF66E01
:100B30000D0EF76E010EF86E0900F5CF5EF000EEB7
:100B400060F02F0EEE6AE806FDE100EE52F00C0EAA
:100B5000EE6AE806FDE15F905F92000100EF80F031
:100B600005C07BFF03C006F004C007F005C008F015
:100B700007C006F008C007F0086A06507A6E03C086
:100B800079FF7F8E80807F9E7C501200000E036E66
:100B90000E01C8ADCEEF85F0D0EF85F0D9EF85F02E
:100BA00099ABD5EF85F0D7EF85F0D9EF85F0010E41
:100BB000036E03501200110ED36E000ED26E8F0E14
:100BC000D56E4E0E036E0D0E046E010E056E76ECA4
:100BD00086F00E01C59BBD8B800ED46E1200480EB0
:100BE0004A6E000E4B6E000E3E6E000E3F6E46C00B
:100BF00040F047C041F04A0E426E000E436E33ECA7
:100C000084F0120003500502F3CF07F0F4CF08F090
:100C100003500602F350082604500502F35008263C
:100C200007C003F008C004F01200035004100510C0
:100C3000D8B41DEF86F01FEF86F025EF86F003C0D5
:100C400060F004C061F005C062F0120003500410AF
:100C50000510D8B42EEF86F030EF86F036EF86F030
:100C600003C063F004C064F005C065F01200046EB8
:100C7000C6EC85F00009D8B440EF86F042EF86F06C
:100C800038EF86F0045097EC86F0120055EC86F0B1
:100C900002EC83F05CEC85F03CEC85F09FEC86F098
:100CA000DBEC85F0F7EC84F01200600E0E01D36FE0
:100CB000000ED56F000ED76F000ED96F000ED86FE3
:100CC00012000F014ABB67EF86F06AEF86F0010E53
:100CD0006BEF86F0000E120077BA71EF86F074EFBA
:100CE00086F0010E75EF86F0000E120003C066F06C
:100CF00004C067F005C068F0120003C069F004C0CA
:100D00006AF005C06BF0120003C06CF004C06DF017
:100D100005C06EF0120003C052F004C053F005C0CD
:100D200054F0120004505C6E03C05DF01200036EBC
:100D300003C095FE1200778C0F014A8D1200A5ECBE
:100D400086F01200010E5E6E12007F9812001200F3
:030D50001200018D
:020000040020DA
:10000000FFFFFFFFFFFFFFFFFFFFFFFFFFFFFFFF00
:10001000FFFFFFFFFFFFFFFFFFFFFFFFFFFFFFFFF0
:10002000FFFFFFFFFFFFFFFFFFFFFFFFFFFFFFFFE0
:10003000FFFFFFFFFFFFFFFFFFFFFFFFFFFFFFFFD0
:10004000FFFFFFFFFFFFFFFFFFFFFFFFFFFFFFFFC0
:10005000FFFFFFFFFFFFFFFFFFFFFFFFFFFFFFFFB0
:10006000FFFFFFFFFFFFFFFFFFFFFFFFFFFFFFFFA0
:10007000FFFFFFFFFFFFFFFFFFFFFFFFFFFFFFFF90
:10008000FFFFFFFFFFFFFFFFFFFFFFFFFFFFFFFF80
:10009000FFFFFFFFFFFFFFFFFFFFFFFFFFFFFFFF70
:1000A000FFFFFFFFFFFFFFFFFFFFFFFFFFFFFFFF60
:1000B000FFFFFFFFFFFFFFFFFFFFFFFFFFFFFFFF50
:1000C000FFFFFFFFFFFFFFFFFFFFFFFFFFFFFFFF40
:1000D000FFFFFFFFFFFFFFFFFFFFFFFFFFFFFFFF30
:1000E000FFFFFFFFFFFFFFFFFFFFFFFFFFFFFFFF20
:1000F000FFFFFFFFFFFFFFFFFFFFFFFFFFFFFFFF10
:020000040030CA
:0C000000FFFFFFFF9FFFFFFFFFFFFFFF60
:00000001FF
